:201100000A12091208120A4C784A0943113C0E4D0E8B1E831D53FD4EFFFF1F83FB23033C80
:201120001D53FD4AFFFF12C3081019533992EC3718B3F6237B4A7F4A0C4BB0122C120B4C93
:201140000C4FB012B6113CF00F000BDC3FF00F003F5003003F9012000C207E4A3EB0800076
:2011600007247C4A4C4CB01226123EF07F000EDC0F5E3B90FF0FCB23304020133DF00F0042
:201180003DE00F000D5D0D5D005D12C30C1012C30C1012C30C1012C30C1012C30C1012C368
:2011A0000C1012C30C1012C30C1012C30C1012C30C1012C30C1012C30C1012C30C1012C3A7
:2011C0000C1012C30C1030410A1209123F4082133F90861316243F4086133F908A131124EB
:2011E0003A408A133A8086130A110A11394086133C497F4C0F5F1F4F82133D498F121A83B8
:20120000F723B0127813304022133DF00F003DE00F000D5D005D0C5C0C5C0C5C0C5C0C5C8B
:201220000C5C0C5C0C5C0C5C0C5C0C5C0C5C0C5C0C5C0C5C3041B240805A2001D2D3220079
:20124000F2D22500C2432400D242FF105700D242FE10560030410F120E120D120C120B127E
:20126000B0129212C24323003B413C413D413E413F4100130F120E120D120C120B12B012FA
:20128000E012B01244133B413C413D413E413F410013829300020924929300020324B01266
:2012A0002813053CB0125C13023CB012361330413140000AB01274130C930224B012C811A3
:2012C0000C43B01250131C43B0126E13B240D0026001B24023F47201B24010006201304181
:2012E000B2900A000202032492530202023CB012281330410F4C0C4D3D4003000D5F1E4FD5
:201300000100304006130E9306240F4C1F53FF4DFFFF1E83FB233041344135413641374157
:20132000384139413A413041C243210082430002824302023041D2432100924300028243D5
:2013400002023041A29300020220D2E321003041B0123612B012CC1232D23041A243000272
:1A13600082430202304132D01000FD3F03430343FF3F03431C43304130419A
:10137A000001000000FFF0000011F4127A130002CD
:02FFC0006613C6
:02FFC2006613C4
:02FFC4006613C2
:02FFC6006613C0
:02FFC8006613BE
:02FFCA006613BC
:02FFCC006613BA
:02FFCE006613B8
:02FFD0006613B6
:02FFD2006613B4
:02FFD4006613B2
:02FFD6006613B0
:02FFD8006613AE
:02FFDA006613AC
:02FFDC006613AA
:02FFDE00FFFF23
:02FFE0006613A6
:02FFE2006613A4
:02FFE4005612B3
:02FFE6006613A0
:02FFE80066139E
:02FFEA0066139C
:02FFEC0066139A
:02FFEE00661398
:02FFF000661396
:02FFF200741287
:02FFF400661392
:02FFF600661390
:02FFF80066138E
:02FFFA0066138C
:02FFFC0066138A
:02FFFE00B0123F
:00000001FF
